{
  "contractName": "PractitionerContract",
  "abi": [
    {
      "inputs": [],
      "stateMutability": "nonpayable",
      "type": "constructor"
    },
    {
      "inputs": [],
      "name": "owner",
      "outputs": [
        {
          "internalType": "address",
          "name": "",
          "type": "address"
        }
      ],
      "stateMutability": "view",
      "type": "function"
    },
    {
      "inputs": [
        {
          "internalType": "address",
          "name": "",
          "type": "address"
        }
      ],
      "name": "patient",
      "outputs": [
        {
          "internalType": "string",
          "name": "patient_data",
          "type": "string"
        }
      ],
      "stateMutability": "view",
      "type": "function"
    },
    {
      "inputs": [
        {
          "internalType": "address",
          "name": "",
          "type": "address"
        },
        {
          "internalType": "uint256",
          "name": "",
          "type": "uint256"
        }
      ],
      "name": "practitioners",
      "outputs": [
        {
          "internalType": "address",
          "name": "prac_id",
          "type": "address"
        },
        {
          "internalType": "bool",
          "name": "access",
          "type": "bool"
        },
        {
          "internalType": "uint256",
          "name": "startAccess",
          "type": "uint256"
        },
        {
          "internalType": "uint256",
          "name": "endAccess",
          "type": "uint256"
        }
      ],
      "stateMutability": "view",
      "type": "function"
    },
    {
      "inputs": [
        {
          "internalType": "address",
          "name": "",
          "type": "address"
        },
        {
          "internalType": "uint256",
          "name": "",
          "type": "uint256"
        }
      ],
      "name": "records",
      "outputs": [
        {
          "components": [
            {
              "internalType": "string",
              "name": "patient_data",
              "type": "string"
            }
          ],
          "internalType": "struct PractitionerContract.Patient",
          "name": "patientdata",
          "type": "tuple"
        },
        {
          "internalType": "uint256",
          "name": "time",
          "type": "uint256"
        },
        {
          "internalType": "string",
          "name": "practitioner_id",
          "type": "string"
        },
        {
          "internalType": "string",
          "name": "patient",
          "type": "string"
        },
        {
          "internalType": "string",
          "name": "record_cred",
          "type": "string"
        }
      ],
      "stateMutability": "view",
      "type": "function"
    },
    {
      "inputs": [
        {
          "internalType": "string",
          "name": "record",
          "type": "string"
        },
        {
          "internalType": "string",
          "name": "prac_id",
          "type": "string"
        }
      ],
      "name": "addRecord",
      "outputs": [],
      "stateMutability": "nonpayable",
      "type": "function"
    },
    {
      "inputs": [
        {
          "internalType": "string",
          "name": "hash",
          "type": "string"
        }
      ],
      "name": "create_Patient",
      "outputs": [],
      "stateMutability": "nonpayable",
      "type": "function"
    },
    {
      "inputs": [
        {
          "internalType": "address",
          "name": "prac_id",
          "type": "address"
        }
      ],
      "name": "grantAccess",
      "outputs": [],
      "stateMutability": "nonpayable",
      "type": "function"
    }
  ],
  "bytecode": "0x608060405234801561001057600080fd5b50336000806101000a81548173ffffffffffffffffffffffffffffffffffffffff021916908373ffffffffffffffffffffffffffffffffffffffff1602179055506111a8806100606000396000f3fe608060405234801561001057600080fd5b506004361061007d5760003560e01c806382a6c0ac1161005b57806382a6c0ac146100ed5780638da5cb5b14610121578063c95962481461013f578063d44427b11461015b5761007d565b80630ae5e73914610082578063292a7f681461009e5780637308a48d146100ba575b600080fd5b61009c600480360381019061009791906109cd565b61018b565b005b6100b860048036038101906100b39190610b40565b6102d0565b005b6100d460048036038101906100cf9190610bbf565b610323565b6040516100e49493929190610c38565b60405180910390f35b61010760048036038101906101029190610bbf565b61039d565b604051610118959493929190610d70565b60405180910390f35b610129610624565b6040516101369190610ddf565b60405180910390f35b61015960048036038101906101549190610dfa565b610648565b005b610175600480360381019061017091906109cd565b61082d565b6040516101829190610e72565b60405180910390f35b6101936108d3565b81816000019073ffffffffffffffffffffffffffffffffffffffff16908173ffffffffffffffffffffffffffffffffffffffff1681525050600181602001901515908115158152505042816040018181525050600360003373ffffffffffffffffffffffffffffffffffffffff1673ffffffffffffffffffffffffffffffffffffffff16815260200190815260200160002081908060018154018082558091505060019003906000526020600020906003020160009091909190915060008201518160000160006101000a81548173ffffffffffffffffffffffffffffffffffffffff021916908373ffffffffffffffffffffffffffffffffffffffff16021790555060208201518160000160146101000a81548160ff021916908315150217905550604082015181600101556060820151816002015550505050565b80600160003373ffffffffffffffffffffffffffffffffffffffff1673ffffffffffffffffffffffffffffffffffffffff168152602001908152602001600020600001908161031f91906110a0565b5050565b6003602052816000526040600020818154811061033f57600080fd5b9060005260206000209060030201600091509150508060000160009054906101000a900473ffffffffffffffffffffffffffffffffffffffff16908060000160149054906101000a900460ff16908060010154908060020154905084565b600260205281600052604060002081815481106103b957600080fd5b906000526020600020906005020160009150915050806000016040518060200160405290816000820180546103ed90610ec3565b80601f016020809104026020016040519081016040528092919081815260200182805461041990610ec3565b80156104665780601f1061043b57610100808354040283529160200191610466565b820191906000526020600020905b81548152906001019060200180831161044957829003601f168201915b5050505050815250509080600101549080600201805461048590610ec3565b80601f01602080910402602001604051908101604052809291908181526020018280546104b190610ec3565b80156104fe5780601f106104d3576101008083540402835291602001916104fe565b820191906000526020600020905b8154815290600101906020018083116104e157829003601f168201915b50505050509080600301805461051390610ec3565b80601f016020809104026020016040519081016040528092919081815260200182805461053f90610ec3565b801561058c5780601f106105615761010080835404028352916020019161058c565b820191906000526020600020905b81548152906001019060200180831161056f57829003601f168201915b5050505050908060040180546105a190610ec3565b80601f01602080910402602001604051908101604052809291908181526020018280546105cd90610ec3565b801561061a5780601f106105ef5761010080835404028352916020019161061a565b820191906000526020600020905b8154815290600101906020018083116105fd57829003601f168201915b5050505050905085565b60008054906101000a900473ffffffffffffffffffffffffffffffffffffffff1681565b610650610913565b600160003373ffffffffffffffffffffffffffffffffffffffff1673ffffffffffffffffffffffffffffffffffffffff1681526020019081526020016000206040518060200160405290816000820180546106aa90610ec3565b80601f01602080910402602001604051908101604052809291908181526020018280546106d690610ec3565b80156107235780601f106106f857610100808354040283529160200191610723565b820191906000526020600020905b81548152906001019060200180831161070657829003601f168201915b505050505081525050816000018190525042816020018181525050828160800181905250818160400181905250600260003373ffffffffffffffffffffffffffffffffffffffff1673ffffffffffffffffffffffffffffffffffffffff16815260200190815260200160002081908060018154018082558091505060019003906000526020600020906005020160009091909190915060008201518160000160008201518160000190816107d791906110a0565b5050506020820151816001015560408201518160020190816107f991906110a0565b50606082015181600301908161080f91906110a0565b50608082015181600401908161082591906110a0565b505050505050565b600160205280600052604060002060009150905080600001805461085090610ec3565b80601f016020809104026020016040519081016040528092919081815260200182805461087c90610ec3565b80156108c95780601f1061089e576101008083540402835291602001916108c9565b820191906000526020600020905b8154815290600101906020018083116108ac57829003601f168201915b5050505050905081565b6040518060800160405280600073ffffffffffffffffffffffffffffffffffffffff16815260200160001515815260200160008152602001600081525090565b6040518060a00160405280610926610948565b8152602001600081526020016060815260200160608152602001606081525090565b6040518060200160405280606081525090565b6000604051905090565b600080fd5b600080fd5b600073ffffffffffffffffffffffffffffffffffffffff82169050919050565b600061099a8261096f565b9050919050565b6109aa8161098f565b81146109b557600080fd5b50565b6000813590506109c7816109a1565b92915050565b6000602082840312156109e3576109e2610965565b5b60006109f1848285016109b8565b91505092915050565b600080fd5b600080fd5b6000601f19601f8301169050919050565b7f4e487b7100000000000000000000000000000000000000000000000000000000600052604160045260246000fd5b610a4d82610a04565b810181811067ffffffffffffffff82111715610a6c57610a6b610a15565b5b80604052505050565b6000610a7f61095b565b9050610a8b8282610a44565b919050565b600067ffffffffffffffff821115610aab57610aaa610a15565b5b610ab482610a04565b9050602081019050919050565b82818337600083830152505050565b6000610ae3610ade84610a90565b610a75565b905082815260208101848484011115610aff57610afe6109ff565b5b610b0a848285610ac1565b509392505050565b600082601f830112610b2757610b266109fa565b5b8135610b37848260208601610ad0565b91505092915050565b600060208284031215610b5657610b55610965565b5b600082013567ffffffffffffffff811115610b7457610b7361096a565b5b610b8084828501610b12565b91505092915050565b6000819050919050565b610b9c81610b89565b8114610ba757600080fd5b50565b600081359050610bb981610b93565b92915050565b60008060408385031215610bd657610bd5610965565b5b6000610be4858286016109b8565b9250506020610bf585828601610baa565b9150509250929050565b610c088161098f565b82525050565b60008115159050919050565b610c2381610c0e565b82525050565b610c3281610b89565b82525050565b6000608082019050610c4d6000830187610bff565b610c5a6020830186610c1a565b610c676040830185610c29565b610c746060830184610c29565b95945050505050565b600081519050919050565b600082825260208201905092915050565b60005b83811015610cb7578082015181840152602081019050610c9c565b60008484015250505050565b6000610cce82610c7d565b610cd88185610c88565b9350610ce8818560208601610c99565b610cf181610a04565b840191505092915050565b60006020830160008301518482036000860152610d198282610cc3565b9150508091505092915050565b600082825260208201905092915050565b6000610d4282610c7d565b610d4c8185610d26565b9350610d5c818560208601610c99565b610d6581610a04565b840191505092915050565b600060a0820190508181036000830152610d8a8188610cfc565b9050610d996020830187610c29565b8181036040830152610dab8186610d37565b90508181036060830152610dbf8185610d37565b90508181036080830152610dd38184610d37565b90509695505050505050565b6000602082019050610df46000830184610bff565b92915050565b60008060408385031215610e1157610e10610965565b5b600083013567ffffffffffffffff811115610e2f57610e2e61096a565b5b610e3b85828601610b12565b925050602083013567ffffffffffffffff811115610e5c57610e5b61096a565b5b610e6885828601610b12565b9150509250929050565b60006020820190508181036000830152610e8c8184610d37565b905092915050565b7f4e487b7100000000000000000000000000000000000000000000000000000000600052602260045260246000fd5b60006002820490506001821680610edb57607f821691505b602082108103610eee57610eed610e94565b5b50919050565b60008190508160005260206000209050919050565b60006020601f8301049050919050565b600082821b905092915050565b600060088302610f567fffffffffffffffffffffffffffffffffffffffffffffffffffffffffffffffff82610f19565b610f608683610f19565b95508019841693508086168417925050509392505050565b6000819050919050565b6000610f9d610f98610f9384610b89565b610f78565b610b89565b9050919050565b6000819050919050565b610fb783610f82565b610fcb610fc382610fa4565b848454610f26565b825550505050565b600090565b610fe0610fd3565b610feb818484610fae565b505050565b5b8181101561100f57611004600082610fd8565b600181019050610ff1565b5050565b601f8211156110545761102581610ef4565b61102e84610f09565b8101602085101561103d578190505b61105161104985610f09565b830182610ff0565b50505b505050565b600082821c905092915050565b600061107760001984600802611059565b1980831691505092915050565b60006110908383611066565b9150826002028217905092915050565b6110a982610c7d565b67ffffffffffffffff8111156110c2576110c1610a15565b5b6110cc8254610ec3565b6110d7828285611013565b600060209050601f83116001811461110a57600084156110f8578287015190505b6111028582611084565b86555061116a565b601f19841661111886610ef4565b60005b828110156111405784890151825560018201915060208501945060208101905061111b565b8683101561115d5784890151611159601f891682611066565b8355505b6001600288020188555050505b50505050505056fea26469706673582212205270fbd591ab93ff88be9a9949f9c0d50de40ff69a48381a79415a63a728141d64736f6c63430008110033",
  "immutableReferences": {},
  "source": "// SPDX-License-Identifier: Undefined\r\npragma solidity ^0.8.17;\r\n\r\ncontract PractitionerContract {\r\n    address public owner;\r\n    modifier onlyOwner() {\r\n        require(msg.sender == owner, \"You are not the Owner\");\r\n        _;\r\n    }\r\n    modifier onlyPractitioner() {\r\n        _;\r\n    }\r\n    modifier onlyPatient() {\r\n        _;\r\n    }\r\n\r\n    constructor() {\r\n        owner = msg.sender;\r\n    }\r\n\r\n    struct Patient {\r\n        string patient_data; // It will contain the CID of the Name, DOB and other public details, stored on a distibuted network\r\n    }\r\n    mapping(address => Patient) public patient;\r\n    struct Record {\r\n        Patient patientdata;\r\n        uint256 time;\r\n        string practitioner_id;\r\n        string patient;\r\n        string record_cred;\r\n    } // This Record will contain 2 things, 1st is the Patient Data, and second is the Record of the Particular Patient\r\n    mapping(address => Record[]) public records;\r\n    struct Practitioners{\r\n        address prac_id;\r\n        bool access;\r\n        uint startAccess;\r\n        uint endAccess;\r\n    }\r\n    mapping(address => Practitioners[]) public practitioners;\r\n    function addRecord(string memory record, string memory prac_id) public {\r\n        Record memory recs;\r\n        recs.patientdata = patient[msg.sender];\r\n        recs.time = block.timestamp;\r\n        recs.record_cred = record;\r\n        recs.practitioner_id = prac_id;\r\n        // This function adds the Records to the \"records\" array which is mapped to the public key \r\n        records[msg.sender].push(recs);\r\n    }\r\n\r\n    function create_Patient(string memory hash) public {\r\n        patient[msg.sender].patient_data = hash;\r\n    }\r\n\r\n    function grantAccess(address prac_id) public{\r\n        Practitioners memory prac;\r\n        prac.prac_id = prac_id;\r\n        prac.access = true;\r\n        prac.startAccess = block.timestamp;\r\n        practitioners[msg.sender].push(prac);\r\n    }\r\n    \r\n}\r\n",
  "sourcePath": "C:\\Users\\ajsty\\OneDrive\\Desktop\\VS_Code\\MediCord\\Contracts\\contracts\\Patient.sol",
  "compiler": {
    "name": "solc",
    "version": "0.8.17+commit.8df45f5f.Emscripten.clang"
  },
  "schemaVersion": "3.4.11",
  "updatedAt": "2023-08-05T17:46:38.560Z",
  "devdoc": {
    "kind": "dev",
    "methods": {},
    "version": 1
  },
  "userdoc": {
    "kind": "user",
    "methods": {},
    "version": 1
  }
}